{
  "transactions": [
    {
      "hash": "0x4ffcbddb5db1a31a2f63f21974ce6ef0d6bc7edba6e137e2297e8cdb3fd920bc",
      "transactionType": "CALL",
      "contractName": "ContractRegistry",
      "contractAddress": "0xB0779231B0FDA405680e889D13814488720b9adD",
      "function": "addAttestation(string,address,uint256,string)",
      "arguments": [
        "https://app.arbor.finance",
        "0x0b7fFc1f4AD541A4Ed16b40D8c37f0929158D101",
        "1",
        "Gnosis EasyAuction"
      ],
      "rpc": "https://goerli.gateway.tenderly.co/1hkLuGa16Wa4LGnjnfzqfM",
      "transaction": {
        "type": "0x00",
        "from": "0xc13eda6bff669b3858650bc34dd8802ef93d31e9",
        "to": "0xb0779231b0fda405680e889d13814488720b9add",
        "gas": "0x4a2d2",
        "value": "0x0",
        "data": "0xf0a6d28600000000000000000000000000000000000000000000000000000000000000800000000000000000000000000b7ffc1f4ad541a4ed16b40d8c37f0929158d101000000000000000000000000000000000000000000000000000000000000000100000000000000000000000000000000000000000000000000000000000000c0000000000000000000000000000000000000000000000000000000000000001968747470733a2f2f6170702e6172626f722e66696e616e6365000000000000000000000000000000000000000000000000000000000000000000000000000012476e6f736973204561737941756374696f6e0000000000000000000000000000",
        "nonce": "0x41"
      },
      "additionalContracts": [],
      "isFixedGasLimit": false
    },
    {
      "hash": "0xad6a6c07a30900ee1f851b1924073488dcec08809286f57c087bc93fa811c24e",
      "transactionType": "CALL",
      "contractName": "ContractRegistry",
      "contractAddress": "0xB0779231B0FDA405680e889D13814488720b9adD",
      "function": "addAttestation(string,address,uint256,string)",
      "arguments": [
        "https://app.arbor.finance",
        "0x1fBAb40C338E2e7243DA945820Ba680C92EF8281",
        "5",
        "Gnosis EasyAuction"
      ],
      "rpc": "https://goerli.gateway.tenderly.co/1hkLuGa16Wa4LGnjnfzqfM",
      "transaction": {
        "type": "0x00",
        "from": "0xc13eda6bff669b3858650bc34dd8802ef93d31e9",
        "to": "0xb0779231b0fda405680e889d13814488720b9add",
        "gas": "0x4a2d2",
        "value": "0x0",
        "data": "0xf0a6d28600000000000000000000000000000000000000000000000000000000000000800000000000000000000000001fbab40c338e2e7243da945820ba680c92ef8281000000000000000000000000000000000000000000000000000000000000000500000000000000000000000000000000000000000000000000000000000000c0000000000000000000000000000000000000000000000000000000000000001968747470733a2f2f6170702e6172626f722e66696e616e6365000000000000000000000000000000000000000000000000000000000000000000000000000012476e6f736973204561737941756374696f6e0000000000000000000000000000",
        "nonce": "0x42"
      },
      "additionalContracts": [],
      "isFixedGasLimit": false
    },
    {
      "hash": "0x03b6c905c890ce08aa2a9519ac3c838edc61fb238739fd5eb57015bb89247749",
      "transactionType": "CALL",
      "contractName": "ContractRegistry",
      "contractAddress": "0xB0779231B0FDA405680e889D13814488720b9adD",
      "function": "addAttestation(string,address,uint256,string)",
      "arguments": [
        "https://app.arbor.finance",
        "0x1533Eb8c6cc510863b496D182596AB0e9E77A00c",
        "1",
        "BondFactory"
      ],
      "rpc": "https://goerli.gateway.tenderly.co/1hkLuGa16Wa4LGnjnfzqfM",
      "transaction": {
        "type": "0x00",
        "from": "0xc13eda6bff669b3858650bc34dd8802ef93d31e9",
        "to": "0xb0779231b0fda405680e889d13814488720b9add",
        "gas": "0x440a7",
        "value": "0x0",
        "data": "0xf0a6d28600000000000000000000000000000000000000000000000000000000000000800000000000000000000000001533eb8c6cc510863b496d182596ab0e9e77a00c000000000000000000000000000000000000000000000000000000000000000100000000000000000000000000000000000000000000000000000000000000c0000000000000000000000000000000000000000000000000000000000000001968747470733a2f2f6170702e6172626f722e66696e616e636500000000000000000000000000000000000000000000000000000000000000000000000000000b426f6e64466163746f7279000000000000000000000000000000000000000000",
        "nonce": "0x43"
      },
      "additionalContracts": [],
      "isFixedGasLimit": false
    },
    {
      "hash": "0xf3575cc869dcf1207fcf6f40c22635ba3749e49e39232aed743e78c47fbe69de",
      "transactionType": "CALL",
      "contractName": "ContractRegistry",
      "contractAddress": "0xB0779231B0FDA405680e889D13814488720b9adD",
      "function": "addAttestation(string,address,uint256,string)",
      "arguments": [
        "https://app.arbor.finance",
        "0xBE9A5b24dbEB65b21Fc91BD825257f5c4FE9c01D",
        "5",
        "BondFactory"
      ],
      "rpc": "https://goerli.gateway.tenderly.co/1hkLuGa16Wa4LGnjnfzqfM",
      "transaction": {
        "type": "0x00",
        "from": "0xc13eda6bff669b3858650bc34dd8802ef93d31e9",
        "to": "0xb0779231b0fda405680e889d13814488720b9add",
        "gas": "0x440a7",
        "value": "0x0",
        "data": "0xf0a6d2860000000000000000000000000000000000000000000000000000000000000080000000000000000000000000be9a5b24dbeb65b21fc91bd825257f5c4fe9c01d000000000000000000000000000000000000000000000000000000000000000500000000000000000000000000000000000000000000000000000000000000c0000000000000000000000000000000000000000000000000000000000000001968747470733a2f2f6170702e6172626f722e66696e616e636500000000000000000000000000000000000000000000000000000000000000000000000000000b426f6e64466163746f7279000000000000000000000000000000000000000000",
        "nonce": "0x44"
      },
      "additionalContracts": [],
      "isFixedGasLimit": false
    },
    {
      "hash": "0x452393cceac6a6ca79b87a352c3343ab8fc0c3448a73b73b2216b4fcca3b494c",
      "transactionType": "CALL",
      "contractName": "ContractRegistry",
      "contractAddress": "0xB0779231B0FDA405680e889D13814488720b9adD",
      "function": "addAttestation(string,address,uint256,string)",
      "arguments": [
        "https://app.arbor.finance",
        "0x6285D6b0Ccac4ecaF4f7a2738fEc03330809B162",
        "1",
        "BondImplementation"
      ],
      "rpc": "https://goerli.gateway.tenderly.co/1hkLuGa16Wa4LGnjnfzqfM",
      "transaction": {
        "type": "0x00",
        "from": "0xc13eda6bff669b3858650bc34dd8802ef93d31e9",
        "to": "0xb0779231b0fda405680e889d13814488720b9add",
        "gas": "0x404a0",
        "value": "0x0",
        "data": "0xf0a6d28600000000000000000000000000000000000000000000000000000000000000800000000000000000000000006285d6b0ccac4ecaf4f7a2738fec03330809b162000000000000000000000000000000000000000000000000000000000000000100000000000000000000000000000000000000000000000000000000000000c0000000000000000000000000000000000000000000000000000000000000001968747470733a2f2f6170702e6172626f722e66696e616e6365000000000000000000000000000000000000000000000000000000000000000000000000000012426f6e64496d706c656d656e746174696f6e0000000000000000000000000000",
        "nonce": "0x45"
      },
      "additionalContracts": [],
      "isFixedGasLimit": false
    },
    {
      "hash": "0x05c84915e68db1bb40f921a7907eb5a1dfe99763a06cab97dc811229bf517fa8",
      "transactionType": "CALL",
      "contractName": "ContractRegistry",
      "contractAddress": "0xB0779231B0FDA405680e889D13814488720b9adD",
      "function": "addAttestation(string,address,uint256,string)",
      "arguments": [
        "https://app.arbor.finance",
        "0xF457Fcb60F761c98b23b4edDe638E99711476FF7",
        "5",
        "BondImplementation"
      ],
      "rpc": "https://goerli.gateway.tenderly.co/1hkLuGa16Wa4LGnjnfzqfM",
      "transaction": {
        "type": "0x00",
        "from": "0xc13eda6bff669b3858650bc34dd8802ef93d31e9",
        "to": "0xb0779231b0fda405680e889d13814488720b9add",
        "gas": "0x404a0",
        "value": "0x0",
        "data": "0xf0a6d2860000000000000000000000000000000000000000000000000000000000000080000000000000000000000000f457fcb60f761c98b23b4edde638e99711476ff7000000000000000000000000000000000000000000000000000000000000000500000000000000000000000000000000000000000000000000000000000000c0000000000000000000000000000000000000000000000000000000000000001968747470733a2f2f6170702e6172626f722e66696e616e6365000000000000000000000000000000000000000000000000000000000000000000000000000012426f6e64496d706c656d656e746174696f6e0000000000000000000000000000",
        "nonce": "0x46"
      },
      "additionalContracts": [],
      "isFixedGasLimit": false
    }
  ],
  "receipts": [
    {
      "transactionHash": "0x4ffcbddb5db1a31a2f63f21974ce6ef0d6bc7edba6e137e2297e8cdb3fd920bc",
      "transactionIndex": "0x33",
      "blockHash": "0xb963bb80ed4d7774ca73cd2839f24b9a0c2fb06f9cb14e8e4ab5fd5b7d935f86",
      "blockNumber": "0x858e8e",
      "from": "0xc13eDA6bFF669b3858650bc34Dd8802eF93D31E9",
      "to": "0xB0779231B0FDA405680e889D13814488720b9adD",
      "cumulativeGasUsed": "0x8ee3cd",
      "gasUsed": "0x32b81",
      "contractAddress": null,
      "logs": [
        {
          "address": "0xB0779231B0FDA405680e889D13814488720b9adD",
          "topics": [
            "0x1ff568c7b37f9db69640faf2273cb0de9395c47c3c26489a93dd160248a9ddb1",
            "0xcbee7187287fcd57ee1769a943398c8764e18b02854d08e9229064cf2c8d0c4b",
            "0x0000000000000000000000000000000000000000000000000000000000000001",
            "0x000000000000000000000000c13eda6bff669b3858650bc34dd8802ef93d31e9"
          ],
          "data": "0x0000000000000000000000000b7ffc1f4ad541a4ed16b40d8c37f0929158d101",
          "blockHash": "0xb963bb80ed4d7774ca73cd2839f24b9a0c2fb06f9cb14e8e4ab5fd5b7d935f86",
          "blockNumber": "0x858e8e",
          "transactionHash": "0x4ffcbddb5db1a31a2f63f21974ce6ef0d6bc7edba6e137e2297e8cdb3fd920bc",
          "transactionIndex": "0x33",
          "logIndex": "0x63",
          "removed": false
        }
      ],
      "status": "0x1",
      "logsBloom": "0x00000000000000000000000000400000000000000000000000000000000000002000000000000000000000000000001000000000000000000000000000040000000000000000000000000000000000000004000000040000000000000000008010200000100000000000000000000000000000000000000000000000000000000000000000000000000000000000000000000000000000001000000000000000000000000000000000000000000000000000000000000000000000000000000000000000000000000000000000000000000000000000000200000000000040000000000000000000000000000000000000000000001000000000000100000000",
      "effectiveGasPrice": "0xd1f30677"
    },
    {
      "transactionHash": "0xad6a6c07a30900ee1f851b1924073488dcec08809286f57c087bc93fa811c24e",
      "transactionIndex": "0x34",
      "blockHash": "0xb963bb80ed4d7774ca73cd2839f24b9a0c2fb06f9cb14e8e4ab5fd5b7d935f86",
      "blockNumber": "0x858e8e",
      "from": "0xc13eDA6bFF669b3858650bc34Dd8802eF93D31E9",
      "to": "0xB0779231B0FDA405680e889D13814488720b9adD",
      "cumulativeGasUsed": "0x920f4e",
      "gasUsed": "0x32b81",
      "contractAddress": null,
      "logs": [
        {
          "address": "0xB0779231B0FDA405680e889D13814488720b9adD",
          "topics": [
            "0x1ff568c7b37f9db69640faf2273cb0de9395c47c3c26489a93dd160248a9ddb1",
            "0xcbee7187287fcd57ee1769a943398c8764e18b02854d08e9229064cf2c8d0c4b",
            "0x0000000000000000000000000000000000000000000000000000000000000005",
            "0x000000000000000000000000c13eda6bff669b3858650bc34dd8802ef93d31e9"
          ],
          "data": "0x0000000000000000000000001fbab40c338e2e7243da945820ba680c92ef8281",
          "blockHash": "0xb963bb80ed4d7774ca73cd2839f24b9a0c2fb06f9cb14e8e4ab5fd5b7d935f86",
          "blockNumber": "0x858e8e",
          "transactionHash": "0xad6a6c07a30900ee1f851b1924073488dcec08809286f57c087bc93fa811c24e",
          "transactionIndex": "0x34",
          "logIndex": "0x64",
          "removed": false
        }
      ],
      "status": "0x1",
      "logsBloom": "0x00000000000000000000000000400000000000000000000000000000000000002000000000000000000000000000001000000000000000000000000000000000000010000000000000000000000000000004000000000000000000000000008010200000100000000000000000000000000000000000000000000000000000000000000000000000000000000000001000000800000000001000000000000000000000000000000000000000000000000000000000000000000000000000000000000000000000000000000000000000000000000000000200000000000000000000000000000000000000000000000000000000001000000000000100000000",
      "effectiveGasPrice": "0xd1f30677"
    },
    {
      "transactionHash": "0x03b6c905c890ce08aa2a9519ac3c838edc61fb238739fd5eb57015bb89247749",
      "transactionIndex": "0x35",
      "blockHash": "0xb963bb80ed4d7774ca73cd2839f24b9a0c2fb06f9cb14e8e4ab5fd5b7d935f86",
      "blockNumber": "0x858e8e",
      "from": "0xc13eDA6bFF669b3858650bc34Dd8802eF93D31E9",
      "to": "0xB0779231B0FDA405680e889D13814488720b9adD",
      "cumulativeGasUsed": "0x94f7af",
      "gasUsed": "0x2e861",
      "contractAddress": null,
      "logs": [
        {
          "address": "0xB0779231B0FDA405680e889D13814488720b9adD",
          "topics": [
            "0x1ff568c7b37f9db69640faf2273cb0de9395c47c3c26489a93dd160248a9ddb1",
            "0xcbee7187287fcd57ee1769a943398c8764e18b02854d08e9229064cf2c8d0c4b",
            "0x0000000000000000000000000000000000000000000000000000000000000001",
            "0x000000000000000000000000c13eda6bff669b3858650bc34dd8802ef93d31e9"
          ],
          "data": "0x0000000000000000000000001533eb8c6cc510863b496d182596ab0e9e77a00c",
          "blockHash": "0xb963bb80ed4d7774ca73cd2839f24b9a0c2fb06f9cb14e8e4ab5fd5b7d935f86",
          "blockNumber": "0x858e8e",
          "transactionHash": "0x03b6c905c890ce08aa2a9519ac3c838edc61fb238739fd5eb57015bb89247749",
          "transactionIndex": "0x35",
          "logIndex": "0x65",
          "removed": false
        }
      ],
      "status": "0x1",
      "logsBloom": "0x00000000000000000000000000400000000000000000000000000000000000002000000000000000000000000000001000000000000000000000000000040000000000000000000000000000000000000004000000040000000000000000008010200000100000000000000000000000000000000000000000000000000000000000000000000000000000000000000000000000000000001000000000000000000000000000000000000000000000000000000000000000000000000000000000000000000000000000000000000000000000000000000200000000000040000000000000000000000000000000000000000000001000000000000100000000",
      "effectiveGasPrice": "0xd1f30677"
    },
    {
      "transactionHash": "0xf3575cc869dcf1207fcf6f40c22635ba3749e49e39232aed743e78c47fbe69de",
      "transactionIndex": "0x36",
      "blockHash": "0xb963bb80ed4d7774ca73cd2839f24b9a0c2fb06f9cb14e8e4ab5fd5b7d935f86",
      "blockNumber": "0x858e8e",
      "from": "0xc13eDA6bFF669b3858650bc34Dd8802eF93D31E9",
      "to": "0xB0779231B0FDA405680e889D13814488720b9adD",
      "cumulativeGasUsed": "0x97e010",
      "gasUsed": "0x2e861",
      "contractAddress": null,
      "logs": [
        {
          "address": "0xB0779231B0FDA405680e889D13814488720b9adD",
          "topics": [
            "0x1ff568c7b37f9db69640faf2273cb0de9395c47c3c26489a93dd160248a9ddb1",
            "0xcbee7187287fcd57ee1769a943398c8764e18b02854d08e9229064cf2c8d0c4b",
            "0x0000000000000000000000000000000000000000000000000000000000000005",
            "0x000000000000000000000000c13eda6bff669b3858650bc34dd8802ef93d31e9"
          ],
          "data": "0x000000000000000000000000be9a5b24dbeb65b21fc91bd825257f5c4fe9c01d",
          "blockHash": "0xb963bb80ed4d7774ca73cd2839f24b9a0c2fb06f9cb14e8e4ab5fd5b7d935f86",
          "blockNumber": "0x858e8e",
          "transactionHash": "0xf3575cc869dcf1207fcf6f40c22635ba3749e49e39232aed743e78c47fbe69de",
          "transactionIndex": "0x36",
          "logIndex": "0x66",
          "removed": false
        }
      ],
      "status": "0x1",
      "logsBloom": "0x00000000000000000000000000400000000000000000000000000000000000002000000000000000000000000000001000000000000000000000000000000000000010000000000000000000000000000004000000000000000000000000008010200000100000000000000000000000000000000000000000000000000000000000000000000000000000000000001000000800000000001000000000000000000000000000000000000000000000000000000000000000000000000000000000000000000000000000000000000000000000000000000200000000000000000000000000000000000000000000000000000000001000000000000100000000",
      "effectiveGasPrice": "0xd1f30677"
    },
    {
      "transactionHash": "0x452393cceac6a6ca79b87a352c3343ab8fc0c3448a73b73b2216b4fcca3b494c",
      "transactionIndex": "0x37",
      "blockHash": "0xb963bb80ed4d7774ca73cd2839f24b9a0c2fb06f9cb14e8e4ab5fd5b7d935f86",
      "blockNumber": "0x858e8e",
      "from": "0xc13eDA6bFF669b3858650bc34Dd8802eF93D31E9",
      "to": "0xB0779231B0FDA405680e889D13814488720b9adD",
      "cumulativeGasUsed": "0x9ac8c5",
      "gasUsed": "0x2e8b5",
      "contractAddress": null,
      "logs": [
        {
          "address": "0xB0779231B0FDA405680e889D13814488720b9adD",
          "topics": [
            "0x1ff568c7b37f9db69640faf2273cb0de9395c47c3c26489a93dd160248a9ddb1",
            "0xcbee7187287fcd57ee1769a943398c8764e18b02854d08e9229064cf2c8d0c4b",
            "0x0000000000000000000000000000000000000000000000000000000000000001",
            "0x000000000000000000000000c13eda6bff669b3858650bc34dd8802ef93d31e9"
          ],
          "data": "0x0000000000000000000000006285d6b0ccac4ecaf4f7a2738fec03330809b162",
          "blockHash": "0xb963bb80ed4d7774ca73cd2839f24b9a0c2fb06f9cb14e8e4ab5fd5b7d935f86",
          "blockNumber": "0x858e8e",
          "transactionHash": "0x452393cceac6a6ca79b87a352c3343ab8fc0c3448a73b73b2216b4fcca3b494c",
          "transactionIndex": "0x37",
          "logIndex": "0x67",
          "removed": false
        }
      ],
      "status": "0x1",
      "logsBloom": "0x00000000000000000000000000400000000000000000000000000000000000002000000000000000000000000000001000000000000000000000000000040000000000000000000000000000000000000004000000040000000000000000008010200000100000000000000000000000000000000000000000000000000000000000000000000000000000000000000000000000000000001000000000000000000000000000000000000000000000000000000000000000000000000000000000000000000000000000000000000000000000000000000200000000000040000000000000000000000000000000000000000000001000000000000100000000",
      "effectiveGasPrice": "0xd1f30677"
    },
    {
      "transactionHash": "0x05c84915e68db1bb40f921a7907eb5a1dfe99763a06cab97dc811229bf517fa8",
      "transactionIndex": "0x38",
      "blockHash": "0xb963bb80ed4d7774ca73cd2839f24b9a0c2fb06f9cb14e8e4ab5fd5b7d935f86",
      "blockNumber": "0x858e8e",
      "from": "0xc13eDA6bFF669b3858650bc34Dd8802eF93D31E9",
      "to": "0xB0779231B0FDA405680e889D13814488720b9adD",
      "cumulativeGasUsed": "0x9db17a",
      "gasUsed": "0x2e8b5",
      "contractAddress": null,
      "logs": [
        {
          "address": "0xB0779231B0FDA405680e889D13814488720b9adD",
          "topics": [
            "0x1ff568c7b37f9db69640faf2273cb0de9395c47c3c26489a93dd160248a9ddb1",
            "0xcbee7187287fcd57ee1769a943398c8764e18b02854d08e9229064cf2c8d0c4b",
            "0x0000000000000000000000000000000000000000000000000000000000000005",
            "0x000000000000000000000000c13eda6bff669b3858650bc34dd8802ef93d31e9"
          ],
          "data": "0x000000000000000000000000f457fcb60f761c98b23b4edde638e99711476ff7",
          "blockHash": "0xb963bb80ed4d7774ca73cd2839f24b9a0c2fb06f9cb14e8e4ab5fd5b7d935f86",
          "blockNumber": "0x858e8e",
          "transactionHash": "0x05c84915e68db1bb40f921a7907eb5a1dfe99763a06cab97dc811229bf517fa8",
          "transactionIndex": "0x38",
          "logIndex": "0x68",
          "removed": false
        }
      ],
      "status": "0x1",
      "logsBloom": "0x00000000000000000000000000400000000000000000000000000000000000002000000000000000000000000000001000000000000000000000000000000000000010000000000000000000000000000004000000000000000000000000008010200000100000000000000000000000000000000000000000000000000000000000000000000000000000000000001000000800000000001000000000000000000000000000000000000000000000000000000000000000000000000000000000000000000000000000000000000000000000000000000200000000000000000000000000000000000000000000000000000000001000000000000100000000",
      "effectiveGasPrice": "0xd1f30677"
    }
  ],
  "libraries": [],
  "pending": [],
  "path": "/Users/shire/Documents/GitHub/Slash-Contracts/broadcast/Populate.s.sol/5/run-latest.json",
  "returns": {},
  "timestamp": 1680315571,
  "chain": 5,
  "multi": false,
  "commit": "a87fd43"
}